:020000040800F2
:1000000050080020D5000008ED270008E52300086F
:1000100000000000000000000000000000000000E0
:10002000000000000000000000000000552A000849
:1000300000000000000000008D280008572A00087A
:10004000E7000008E70000086D290008E700000845
:10005000E7000008E9020008F3020008E7000008D2
:1000600000000000E7000008E7000008E7000008C3
:10007000E7000008E700000800000000412C00082D
:100080000000000000000000000000000000000070
:10009000DD2B000800000000152C0008E700000818
:1000A00000000000E7000008000000000000000061
:1000B000C1310008E7000008000000000000000057
:1000C0000348854600F096F8004800476935000867
:1000D000500800200448804704480047FEE7FEE738
:1000E000FEE7FEE7FEE7FEE7112B0008C10000086F
:1000F00030B50B46014600202022012409E00D46C0
:10010000D5409D4205D31D469540491B2546954047
:1001100040191546521E002DF1DC30BD70B500248B
:100120002546002801DA01244042002901DA012590
:100130004942FFF7DDFFAC4200D04042002C00D026
:10014000494270BDF0B51FB40646002082B0054696
:100150004024019100901BE0019922460F46304651
:1001600000F037F8049A059B801A994110D3104685
:100170001946224600F01DF8361A8F410197224693
:1001800001200021009F00F014F838184D41009024
:100190002046641E0028DFDC019B00982946324679
:1001A00007B0F0BD421C0178401C0029FBD1801A29
:1001B000704710B5202A04DB0146203A9140002008
:1001C00010BD914020239C1A0346E3401943904000
:1001D00010BD10B5202A04DB0846203AD04000218B
:1001E00010BD0B46D340D0402024A21A91400843B2
:1001F000194610BD064C0125064E05E0E36807CC04
:100200002B430C3C98471034B442F7D3FFF75CFF04
:100210008C5E0008AC5E000838B504460648054907
:100220000068FFF765FF604300E0401E0090002873
:10023000FBD138BD40420F0080000020F8B50446D5
:10024000006881688907890F012902D10168C907FF
:1002500022D18168114A10261140012500290ED1B2
:100260008168294381600120FFF7D6FF00F0A2FCDE
:1002700007460CE000F09EFCC01B0A2807D9A06DC1
:100280003043A065E06D2843E0650120F8BD20689B
:100290000068C043C007EDD10020F8BD1700008002
:1002A0007EB5FF226B461A701A710E4B0022DC1DC0
:1002B000F9340EE06E46855C3679754002956E46DF
:1002C0005D5D367875406E463571029D655D3570B1
:1002D000521C491EEED2694608780979000208438B
:1002E0007EBD0000265C000810B5022000F0A6FBD1
:1002F00010BD10B5082000F0A1FB10BD10B50849D5
:1003000000234B6107494A684C1522434A604A68FA
:10031000082422434A60C009C001036010BD0000E8
:10032000340400200020024010B5214A00209169C9
:10033000CB05204904D5486902231843486190152C
:1003400093699B0505D54B69012423434B616302E7
:10035000184393695B0505D54B69082423434B611A
:10036000E301184393691B0505D54B690424234316
:100370004B616302184393699B0405D54B691024B4
:1003800023434B616302184393699B0304D54C6973
:1003900020231C434C6118439369DB0305D54B694B
:1003A000402423434B61A1020843906110BD00002B
:1003B000002002403404002070B5044600F0FAFB2F
:1003C0000546184E0AE0601C08D0002C04D000F04E
:1003D000F1FB401BA04201D9032070BDB069C007EA
:1003E000F1D1B069800701D50220B061B069C005C4
:1003F00011D4B06980050ED4B06940050BD4B06942
:10040000000508D4B069800405D4B069800302D423
:10041000B069C00303D5FFF787FF012070BD00203E
:1004200070BD000000200240F0B585B000200490AF
:100430002548C17A027A12068918427A837A120410
:100440001B02D2188C18017B427B09061204891802
:10045000C27B12028D181D49CE7F817B0391017CE6
:10046000407C09020F1800F0C9FA002000901848DB
:1004700001900220029004A9684600F05DFA00286D
:1004800001D000F093FA22461149022000F098FAB8
:100490000F492A46091D022000F092FA0C49324603
:1004A0000831022000F08CFA094902200C31039A2D
:1004B00000F086FA06493A461031022000F080FA30
:1004C00000F074FA05B0F0BD8802002000000020A2
:1004D000007F0008F8B505460C464035297D012906
:1004E0000DD00121297501688A68520709D5816DEF
:1004F000202211438165002028750120F8BD0220CB
:10050000F8BD174B6268D80547109A42154E8A6AA3
:10051000236812D05B035B0B1A438A62216849038C
:1005200005D5B1680143B1600A20FFF775FE206868
:10053000800312D5B06838430EE05B035B0B9A432F
:100540008A622168490302D5B1688143B16020689D
:10055000800302D5B068B843B06000202875F8BDAC
:1005600001100000002701400068006C7047000087
:1005700070B5040006D0A06D254600264035002841
:1005800002D006E0012070BDE6652E75204600F021
:10059000D1F8A06DC00603D420688168490705D54D
:1005A000A06D10210843A0652E75EBE7A16DFF2219
:1005B0000132914302221143A16581685B4A890798
:1005C000890F012902D10168C9072BD10323616872
:1005D0009B07994205D05B42994202D05B00994249
:1005E00009D101698900890801612068016963688E
:1005F000194301610CE00169890089080161906873
:100600000F21890488439060906861680843906076
:100610002068C16818239943C1602068C168A36835
:100620001943C16090680121490688439060906831
:10063000218F49060843906020688168C90004D46E
:10064000816801221207114381602068C168384A1D
:100650001140C1602069E168022823D000200143D5
:10066000206A226B4003520010430143606B014338
:10067000A06980030143E069C00301432068C268A8
:100680001143C160A06A0146FF39C23905D0E16A51
:1006900008432168CA681043C860606A01210128C4
:1006A00002D00BE00420DAE7206A002823D0A06DF6
:1006B00020221043A065E06D0843E065206C01280E
:1006C00020681FD00169C90703D0016949084900A2
:1006D000016120684169C908C90041612068416918
:1006E000E26B11434161E665A06D80088000401C0B
:1006F000A065002070BD2068C26801231B041A4356
:10070000C260DBE70269FF239B009A430261206815
:100710000269636CE56C1A43A36C2B431A430261B4
:10072000206802690A430261D3E700000027014004
:100730001902FEFF00B500680A4985B088420FD152
:100740000948416B4215114341631020009003207A
:1007500001900020029005206946000700F07AF918
:1007600005B000BD0024014000100240F8B5044669
:100770004069274640370D4608280BD02068C068DE
:10078000C00709D0A06D20210843A065002038755E
:100790000120F8BD082600E00C2600F00BFA0090BE
:1007A00011E0681C0FD0002D05D000F003FA00996D
:1007B000401AA84207D9A06D04210843A065002073
:1007C00038750320F8BD206800683042E9D0A06D7C
:1007D000012149020843A0652068C1680C2209056F
:1007E000890F00291AD1216A002917D10168090748
:1007F00014D5816801234907002908DB416891432A
:100800004160A06D190288431843A06506E0A06D01
:1008100020210843A065E06D1843E065A069002829
:1008200001D1206802600020F8BD000070B50446C8
:10083000216800208968490721D425464035297D53
:1008400001291CD001212975E169012904D0204624
:10085000FFF7F4FC002811D1A16D0A4A1140FF22D4
:1008600001321143A1650021E165297522681C212F
:10087000116021688A6804231A438A6070BD0220CF
:1008800070BD0000FEF1FFFF70B50024024620326B
:100890005179022903D00421C16301243CE001689D
:1008A0000B680E25AB430B6001680B685B085B00AF
:1008B0000B601A4B0168994201D1012121E0174BCD
:1008C0001433994201D110211BE0144B2833994273
:1008D00001D1891515E0114B3C33994201D189149E
:1008E0000FE00E4B5033994202D10121090408E078
:1008F0000A4B6433994202D10121090501E001212B
:100900000906064B083B5960012151710021117104
:10091000816B002900D08847204670BD0800024046
:1009200031B500F047F9044600F044F90099001B86
:100930008842F9D338BD0000F8B5194F0546387C18
:100940000E46012807D0012038741648FFF734FD01
:10095000002802D020E00220F8BD0021C943316008
:100960006C6813E02046FFF7C9FC0E48FFF724FD32
:100970000D494A6808239A434A604A684B159A43CE
:100980004A60002801D0346006E08034A9686A68B3
:10099000C9018918A142E5D800213974F8BD0000C9
:1009A0003404002050C30000002002400348416886
:1009B00002221143416000207047000000200240E5
:1009C000F8B50C4C1646207C0F46012808D00120B3
:1009D00020740948FFF7F0FC0025002802D006E04B
:1009E0000220F8BD65613E600348FFF7E5FC257411
:1009F000F8BD00003404002050C3000009484168DD
:100A000089070CD54168C90703D00749C160074968
:100A1000C160074901610749016100207047012059
:100A20007047000000200240EFCDAB8905040302AF
:100A3000BFAE9D8C161514137047000010B5044905
:100A40004A69024202D04861FFF7F6FF10BD00007C
:100A500000040140F0B500228DE001249440A4463A
:100A600023407DD04C68022C01D0122C0CD1D4082C
:100A7000A40027183D6A5407E40E0F26A640B5438C
:100A80000E69A6402E433E624C68012C05D0022C14
:100A900003D0112C01D0122C11D1856854000326EB
:100AA000A640B543CE68A6402E438660446865469E
:100AB000AC430D79ED06ED0F954025434560076881
:100AC00054000325A5400E79AF43B607B60FA640E4
:100AD0003E430660C668AE438D68A5403543C56099
:100AE0004C68E40046D5274C666B01252E436663AF
:100AF0009508254CAD002F19BD689407240F0F26CB
:100B0000A640B54305263607B04201D100260FE0C6
:100B10001E4EB04201D101260AE01D4EB04201D165
:100B2000022605E01B4EB04201D1052600E0062654
:100B3000A6402E43BE60184D2C684E689C43F603B9
:100B400000D51C432C606C684E689C43B60300D5EE
:100B50001C436C60AC684E689C43F60202D500E012
:100B600008E01C43AC60EC684E689C43B60200D5BC
:100B70001C43EC60521C0B681C46D44000D06CE750
:100B8000F0BD0000001002400000014000040050D1
:100B900000080050001C005000040140006908409B
:100BA00000D001207047002A01D081617047816226
:100BB0007047000001480068704700007C0000207A
:100BC00070B504000FD021681348086021681348ED
:100BD000086003CC41602068083C21688860FFF70A
:100BE000E9FF054608E0012070BDFFF7E3FF401B69
:100BF000302801D9032070BD2068C0680028F4D1D6
:100C000020680269E1688A4201D0016101E004497B
:100C10000160002070BD0000CCCC000055550000E4
:100C2000AAAA000000680249016000207047000085
:100C3000AAAA000002480168491C01607047000030
:100C40007C00002010B50648016840221143016075
:100C5000002000F007F800F019F8002010BD000097
:100C60000020024010B5044607487D21C9000068F5
:100C7000FFF73EFA01F09CF800222146501E00F0DA
:100C80002BF8002010BD00008000002010B50C489B
:100C9000416B012211434163816B02041143816363
:100CA00000221146501F00F017F800221146901E36
:100CB00000F012F800221146501E00F00DF810BD91
:100CC00000100240C106C90E012088400149086099
:100CD0007047000000E100E010B501F0B5FD10BD67
:100CE000024801680215114301607047007000401E
:100CF00002480168421511430160704700700040CE
:100D0000024801688215114301607047007000407D
:100D10000A4B1A689208920002431A600848026956
:100D200004231A430261012906D040BF20BF20BF1F
:100D3000016999430161704730BFF9E700700040D5
:100D400000ED00E0F8B53E4D014601230020DB0335
:100D50003A4C3B4A4035022932D0042949D008296F
:100D60005AD020290AD12C69296903252D0429404C
:100D70005E00B14203D1A60501D51846F8BD012396
:100D80005B04994203D1A30701D52E48F8BDA942BF
:100D9000FCD111688903F9D51068032109050840C1
:100DA00001210905401A09D0401A05D0884201D115
:100DB0002548F8BD2548F8BD2548F8BD2548F8BDAB
:100DC000E9680C26314009D008290AD004290DD041
:100DD0000C29F4D129698905CFD4F8BD00F0A6F912
:100DE000F8BD11684907FBD52046F8BD00F0BEF9F3
:100DF000F8BDE9680326B6023140EFD00127FF02B3
:100E0000B94202D112685207EED4012292029142F5
:100E1000ECD0B142DED0F8BDE96803231B031940D2
:100E2000DCD001235B03994202D112685207DBD464
:100E3000012212039142D9D0F8BD00000024F40031
:100E4000001002408890000020A1070000093D002A
:100E500040420F0080841E00F8B504460078534DD0
:100E600080067AD5514800264038806BC00006D4F1
:100E70004E484038816B02041143816301264C487F
:100E80000168C90510D40168821511430160FFF79C
:100E900091FE074604E0FFF78DFEC01B64283AD898
:100EA00043480068C005F6D5404840380068032133
:100EB000090562680840114081420AD09003800F02
:100EC000032806D1394840380068800301D5012045
:100ED000F8BD286903210904084021D00A40824254
:100EE0001ED0207880061BD528692A6988430121F5
:100EF000C9040A432A612A698A432A612861C00514
:100F00000ED5FFF757FE074607E0FFF753FEC11B5C
:100F10002848814201D90320F8BD28698005F4D50D
:100F200060688103890F032908D1204B403B196871
:100F300003221205914310400143196028690322DE
:100F400061681204114008432861002E05D017483B
:100F50004038826B01048A4382632078800705D57C
:100F6000E8680C218843A1680843E86020784007BE
:100F700006D5E868032189028843E1680843E860F0
:100F80002078000706D5E868032109038843216912
:100F90000843E8602078000606D5E8680321890444
:100FA000884361690843E8600020F8BD40100240B2
:100FB0000070004088130000F8B5044653480E4600
:100FC0000068C007C00FB0420AD250480168490803
:100FD0004900314301600068C007C00FB0426FD1C3
:100FE00020784B4F800705D5F868F0218843A16829
:100FF0000843F8602078C00752D06068022817D0F4
:10100000032818D03968012818D08905002957DA33
:10101000F968890889000143F960FFF7CBFD0546AF
:101020006068022812D003281CD0012826D033E0A3
:1010300039688903EAE739688901E7E74907E5E79D
:10104000FFF7B8FD411B3348814223D8F8680007F9
:10105000800F0228F4D123E0FFF7ACFD411B2D489F
:10106000814217D8F8680007800F0328F4D117E0F1
:10107000FFF7A0FD411B274881420BD8F868000705
:10108000800F0128F4D10BE0FFF794FD411B2148AC
:10109000814201D90320F8BDF8680007800FF3D121
:1010A0001A480168C907C90FB1420BD9016849083C
:1010B0004900314301600068C007C00FB04201D051
:1010C0000120F8BD2078400706D5F86807210902FD
:1010D0008843E1680843F8602078000707D5F8687E
:1010E0000721C90288432169C9000843F86000F05C
:1010F0003DF8F968084A0906090F515CC8400749DC
:1011000008600020FFF7AEFD0020F8BD002002407F
:101110000010024088130000695E00088000002073
:10112000014800687047000080000020044805491D
:101130000068C968044A4905490F515CC8407047B6
:101140008000002000100240825E0008044805492B
:101150000068C968044A8904490F515CC840704757
:101160008000002000100240825E000810B5194A7D
:10117000D1680C230846184004280BD0082810D04A
:101180000C2810D050680004410F0120C003491CF6
:10119000884010BD1068C00601D50F4810BD0F482B
:1011A00010BD0F4810BD88020E4B000F185C0902DD
:1011B000D368890F491CDB0301D5094A05E0126891
:1011C000D20601D5044A00E0044A5043FEF790FFDE
:1011D00010BD00000010024000093D000024F40092
:1011E00000127A00795E0008F8B504460078F24EE5
:1011F000C00749D0F0680007800F022807D0F068C8
:101200000007800F032809D1F068C00306D53068B5
:10121000800339D56068002872D035E0012160680C
:101220000904884202D13068084310E005230122F6
:101230001B0492049842306802D110433060F2E7F8
:1012400088433060306808400090306890433060D8
:10125000606800280CD0FFF7ADFC054604E0FFF7FE
:10126000A9FC401B64287DD830688003F7D50BE0CB
:10127000FFF7A0FC054604E0FFF79CFC401B642838
:10128000F1D830688003F7D42078800741D5F06822
:101290001F270007800F3F02012807D0F0680007D2
:1012A000800F032809D1F068C00306D430684007D6
:1012B00017D5E068012823D113E0E068002817D093
:1012C00031680922914301433160FFF773FC054601
:1012D00004E0FFF76FFC401B0228C4D830684007C9
:1012E000F7D570682169B84309020843706010E0BF
:1012F0003068400840003060FFF75CFC054605E0C0
:1013000099E0FFF757FC401B0228ACD83068400733
:10131000F7D42078C00676D5F068A84F0007800F74
:101320000BD0A06900285DD03068FF21013108434F
:101330003060FFF73FFC054644E03068800502D589
:10134000A069002877D0206A71683940884212D994
:1013500001F0A4FA0028AED17068216AB8430843AE
:10136000706000E0BDE07068217F0002000A09069D
:10137000084370600FE07168B943014371607068A1
:10138000217F0002000A090608437060206A01F00C
:1013900085FA00288FD1206A410B0120C003491C27
:1013A0008840F16809060A0F8549895CC84085496B
:1013B00008600020FFF756FC25E0FFF7FBFB401B11
:1013C00002288AD830688005F7D57068216AB8434A
:1013D000084370607068217F0002000A0906084314
:1013E000706010E03168FF20013081433160FFF709
:1013F000E1FB054604E0FFF7DDFB401B022870D847
:1014000030688005F7D420786F4D000723D56069D8
:101410000028286910D0012108432861FFF7CAFB82
:10142000074604E0FFF7C6FBC01B022859D828690D
:101430008007F7D50FE0BCE0400840002861FFF7C7
:10144000B9FB074604E0FFF7B5FBC01B022848D8EC
:1014500028698007F7D42078400762D500200090E3
:10146000B06BC00006D4B06B012109070843B0631C
:101470000120009055480168C90510D40168821503
:1014800011430160FFF796FB074604E0FFF792FB6C
:10149000C01B642825D84D480068C005F6D5FF203C
:1014A000A1680130814203D129690143296111E01A
:1014B00001229202002907D005231B02994203D181
:1014C000296911432961EFE7296981432961286965
:1014D00090432861A06800280ED0FFF76BFB0746F9
:1014E00006E05FE0FFF766FBC11B3948814259D82F
:1014F00028698005F6D50CE0FFF75CFB074605E0A0
:10150000FFF758FBC11B324881424BD82869800540
:10151000F6D40098002804D0B16B01200007814365
:10152000B163606A002842D0F1680907890F032976
:101530003FD001273F060228306805D0B84330600D
:10154000FFF738FB04462FE0B8433060FFF732FB6B
:10155000054604E0FFF72EFB401B022822D8306826
:101560008001F7D4E16AA06AF2680843216BFD2389
:101570001B049A4311430843F060306838433060DD
:10158000FFF718FB044604E0FFF714FB001B0228DA
:1015900008D830688001F7D509E0FFF70BFB001B86
:1015A000022801D90320F8BD30688001F5D400205D
:1015B000F8BD0120F8BD00000010024000E000006E
:1015C000695E00088000002040100240007000406A
:1015D00088130000FFB581B016460F46040005D001
:1015E00025466035687A002803D007E0012005B061
:1015F000F0BD00202872204600F012FE2420687200
:1016000020680168490849000160606A002802D02A
:10161000204601F088FB204601F072FC0128E6D04C
:1016200020688168012292031143816020688168EB
:1016300052009143394381600499700509040143C4
:1016400020680268064B1A400A430260206801685D
:10165000012211430160204601F0CAFBC7E70000E8
:10166000FFFF00FC006889005030081800687047D0
:10167000006889005030081802607047F8B50546C8
:10168000044620352878012819D00120287002202E
:1016900068702168CA204862216853204862206827
:1016A0008168012292029143816020688168120161
:1016B00091438160FFF77EFA064600270FE0022083
:1016C000F8BDFFF777FA811B7D20C000814206D963
:1016D0002168FF204862032068702F70F8BD2068E1
:1016E000C0684007EDD52168FF204862012068707E
:1016F0002F700020F8BD0000F7B5054604462035E0
:101700002878012813D001202870022068702168F1
:10171000CA204862216853204862206880680027F8
:101720004005002810DAFFF745FA064608E00220D7
:10173000FEBDFFF73FFA811B7D20C00081421BD810
:101740002068C0684007F4D42068826801218902BB
:101750008A4382602068C16880221140204A89182B
:10176000C160FFF727FA06460DE0FFF723FA811B59
:101770007D20C000814206D92168FF2048620320F5
:1017800068702F70FEBD2068C0684007EDD52168E5
:101790000198486120688168C908C9008160206893
:1017A0008168029A114381600E4801680122120586
:1017B0001143016081681143816020688168921142
:1017C0001143816020688168121111438160216892
:1017D000FF204862012068702F700020FEBD0000CD
:1017E0007FFBFFFF0004014002480168042211430F
:1017F000016070470070004010B504460068C06882
:10180000400509D52046FFF7EFFF2068C168802218
:101810001140054A8918C16001200449000548614A
:1018200001202034607010BD7FFBFFFF00040140E9
:1018300010B500680B464068C021C9430140000252
:10184000000ECC04D870E40E5C708C06A40E090463
:10185000490F9C701970002A0AD101F057F8D8700E
:10186000587801F053F85870987801F04FF8987054
:10187000002010BD30B50B460168896A59600168C7
:1018800009694904490C9960006804680F482146B9
:10189000014088024D04800E18706D0E49065D707F
:1018A000490E99706102490E40242140D970002AE6
:1018B0000AD101F02BF81870587801F027F8587009
:1018C000987801F023F89870002030BD7F7F7F006A
:1018D00070B5040005D0254620356878002802D070
:1018E00006E0012070BD00202870204600F042F87C
:1018F000022068702168CA2048622168532048622B
:10190000204601F016F8FF210028206803D041622C
:1019100004206870E5E78268154B1A4082602068F1
:1019200082686368A6691A43236933431A43826055
:101930002268E06810612068026923891B041A4349
:1019400002612068C26880239A43C2602068C26C2A
:1019500092089200C264E269606902432068C36C25
:101960001A43C2642068416201206870002070BD83
:10197000BFFF8FFF00680549884205D1044801690F
:1019800001229204114301617047000000280040C9
:1019900040100240F8B505460446203528780B462D
:1019A000012822D001202870022068705878002A6F
:1019B0001DD000F0ABFF987800F0A8FFD8789E7893
:1019C0000004064358781978000249030843064387
:1019D0002168CA204862216853204862204600F0EE
:1019E000A8FF002700282AD117E00220F8BDC10671
:1019F00003D5EF2108400A305870D87800F08EFFE8
:101A00000604587800F08AFF00020643987800F038
:101A100085FF064318784003D9E71148064020683F
:101A200046602068C16880229143C1602068806858
:101A300080060CD4204600F08DF8002807D02168DD
:101A4000FF204862042068702F700120F8BD2168D3
:101A5000FF204862012068702F700020F8BD000050
:101A60003FFFFF00F8B506460446203630780D46A5
:101A700001280ED0012030700220707020680027ED
:101A80008068002A07D040061AD5287800F03EFF6B
:101A900017E00220F8BD400600D4EF70287800F06F
:101AA0003DFF0204687800F039FF00020243A87885
:101AB00000F034FF0243E8780004024300920BE098
:101AC000EF702978A878090408436978EA78090250
:101AD00012041143084300902168CA20486221681B
:101AE00053204862204600F024FF00281FD11849E7
:101AF00000980840216808602068816801229204EB
:101B000091438160E9682869014320688268114334
:101B100081602068C16880229143C160206880682C
:101B200080060CD4204600F015F8002807D0216864
:101B3000FF2048620420707037700120F8BD2168D2
:101B4000FF2048620120707037700020F8BD00004F
:101B50007F7F7F0070B505460068C168A022914371
:101B6000C160FFF727F87D260446F60006E0FFF780
:101B700021F8001BB04201D9032070BD2868C0685D
:101B80008006F4D5002070BD70B5040006D025464F
:101B90004035687C0026002802D005E0012070BD99
:101BA0002E74204600F02EF8022068742068016828
:101BB000402291430160A168606822690843E1689E
:101BC00011430843616901220843A169520211408F
:101BD0000843E1690843216A0843A16A0843216870
:101BE0000860A0690421000C0840616A084321686C
:101BF00048602168E06A0861666501206874002019
:101C000070BD000000B500680C4985B0884212D153
:101C10000B48416B821411434163E0200090022085
:101C20000190002103200390029104910520694650
:101C30000007FEF70FFF05B000BD000000300140B7
:101C400000100240FFB5054604464035687C81B06F
:101C5000012872D100293CD0002A3AD0287C0128E2
:101C60006BD00120287412206874002767652163F7
:101C7000A286E286E764A764A763A787E7870126B1
:101C8000A06A7603B04207D120680168B1430160C1
:101C900020680168314301600121A068C9038842BE
:101CA00005D1206801680122920311430160206878
:101CB0000168490603D40168402211430160E068CD
:101CC0000028606808D0002820D0E08E01281DD0B0
:101CD00026E0012005B0F0BD002802D0E08E0128EA
:101CE00008D1206B411C216321680078C860E08E18
:101CF000401EE086E08E002820D0002202212046EF
:101D0000049B00F03BFE002815D1EAE7206B216818
:101D10000088C860206B801C2063E08E401EE08637
:101D2000E08E00280AD0002202212046049B00F009
:101D300025FE0028EAD00320CCE729E0A06AB042C3
:101D400005D12068016801221203114301600022BD
:101D500002212046049B00F011FE2026002807D116
:101D6000012280212046049B00F008FE002803D0B9
:101D7000606D30436065DEE7A068002803D120680D
:101D8000C16880680090012068742F740020A1E76A
:101D900002209FE7042204490428086902D09043E6
:101DA000086170471043FBE700E000E07047000067
:101DB000094910B5401E884201D9012010BD074CC9
:101DC00060610321081F00F03FFD0020A061072093
:101DD0002061002010BD0000FFFFFF0000E000E0D8
:101DE00010B5FFF7E3FF10BD70B502462032137D3A
:101DF000012B1BD0012414750223537503685D6801
:101E00007026B5435D6003685D680E6835435D60AC
:101E100003689D688026B5439D60006883684968B3
:101E20000B43836054750020107570BD022070BD97
:101E300070B5040005D025462035687D002802D005
:101E400006E0012070BD00202875204600F00AF849
:101E500002206875211D206800F006FF01206875CA
:101E6000002070BD006801218907884204D1034821
:101E7000816B012211438163704700000010024012
:101E80000168CA6801231A43CA60006801681943DF
:101E900001600020704700000168CA6852085200C3
:101EA000CA600068016A044A114203D10168490806
:101EB000490001600020704711110000F8B5054687
:101EC00004462035287D012817D001272F750220D0
:101ED0006875206882687726FF23B2431B029A4305
:101EE00082600868502836D00EDC202856D006DCE8
:101EF00000284DD010283FD14DE00220F8BD3028F9
:101F00004FD0402838D13BE060282CD0702816D024
:101F100001221203801A0DD090422DD1CB684A685D
:101F20008968206800F0C8FE206881680122920359
:101F300011430EE020688168C908C90009E0CB6838
:101F40004A688968206800F0B7FE20688168B1435C
:101F50003143816010E0CA684968206800F0BFFE24
:101F60005021206806E0CA684968206800F0C8FE71
:101F70006021206800F0ABFE6F7500202875F8BD69
:101F8000CA684968206800F0AAFE40212068F1E78D
:101F900000212068EEE710212068EBE7202120686F
:101FA000E8E730212068E5E7704770B5044600682F
:101FB00001690025C9438907002915DBC168C943A8
:101FC000890711D4E91E016101202075206880690C
:101FD0008007204602D0FFF7E7FF04E000F078F822
:101FE000204600F076F8257520680169C943490745
:101FF00017D4C168C943490713D40421C9430161F7
:1020000002202075206880698005800F204602D05C
:10201000FFF7CAFF04E000F05BF8204600F059F833
:10202000257520680169C943090716D4C168C943E9
:10203000090712D40821C9430161042020752068D2
:10204000C0698007204602D0FFF7AEFF04E000F031
:102050003FF8204600F03DF8257520680169C94326
:10206000C90617D4C168C943C90613D41021C9438E
:102070000161082020752068C0698005800F204616
:1020800002D0FFF791FF04E000F022F8204600F0B4
:1020900020F8257520680169C943C90708D1C168BE
:1020A000C943C90704D1891E0161204600F012F816
:1020B00020680169C943490609D4C168C943490672
:1020C00005D44021C9430161204600F004F870BDE9
:1020D000704770477047704770477047F8B502689F
:1020E0000446D069116805072D0F07D1830605D571
:1020F0008B0603D5204600F0C4FEF8BD9368202669
:10210000002D65D0DD07ED0FFF2721370F402F434E
:102110005ED0C70706D0CF0504D501271762E26E4F
:102120003A43E266820708D5DA0706D0276802221A
:102130003A62E26E04273A43E266420708D5DA07BC
:1021400006D0236804221A62E26E02231A43E26672
:10215000020709D50A4632402A4305D023680822DF
:102160001A62E36E1343E366E26E002AC5D080066E
:1021700004D5880602D5204600F083FEE06E0007F5
:1021800003D42068806840061CD5204600F06AFE13
:1021900020688168490611D5826840218A4382609F
:1021A000606E00280AD01D498163606EFEF76CFBEB
:1021B0000028A2D0606E816B8847F8BD2046FFF7EB
:1021C0008CFFF8BD2046FFF788FF0020E066F8BDD1
:1021D0002546C7026035002F0ADA5B0208D50120C8
:1021E000000510626E72AE722046FFF775FFF8BDF3
:1021F000030605D50B0603D5204600F07DFFF8BD8C
:102200004006FCD54806FAD51368204640218B438A
:1022100013606E7200F0E5F8F8BD0000512E000862
:1022200000B50068114985B088421CD11048816B07
:1022300001225204114381630E4800900220019054
:10224000002002900320039004200490052069469A
:102250000007FEF7FFFB002211461C20FEF73CFDA5
:102260001C20FEF72FFD05B000BD0000004400401B
:10227000001002400206000070B5034660339C7AED
:10228000202C44D100290BD0002A09D001258468D4
:102290002D03AC4206D10669002E03D1CE0701D032
:1022A000012070BD1E7A012E31D001261E724165BB
:1022B000014640310A834A83FF22AC4204D10469BB
:1022C000002C12D1134A10E07F25002C08D00122E7
:1022D000120794420AD10269002A04D03F2204E086
:1022E0000469002C01D08D8300E08A830021C1663F
:1022F00022229A72197201688A6832438A600068E1
:102300000168FF22213211430160002070BD0220CC
:1023100070BD0000FF0100007047FFB5074605468D
:102320006037787A83B00C46202858D1002C0CD026
:102330000598002809D00120A9680003814207D12F
:102340002869002804D1E00702D0012007B0F0BDC1
:10235000387A012843D0012038720020E866212015
:102360007872FEF727FC01902E46403605983082A1
:102370000598708218E0708A401E7082069800905E
:10238000002280212846019B00F0E9FE002818D198
:102390000120A9680003814202D12869002812D0D7
:1023A000296820788862641C708A0028E3D1069826
:1023B0000090002240212846019B00F0D0FE00281A
:1023C00008D00320C2E720882968C005C00D8862B4
:1023D000A41CE9E72020787200203872B6E70220BA
:1023E000B4E77047FEE70000F8B54D4CE07B0026EF
:1023F0004C4D00287ED0207B3C214843617B401817
:10240000E17BFDF775FE6887217A20466E3001700A
:10241000617A41708670A27AE17B4B00C918091875
:1024200020394A77E27AE17B4B00C9180918203934
:102430008A77E17B4A00891809182039CE7701781C
:102440003C228C46514342788B18E17B4E0089191F
:10245000091820394E7F3C214E43E17B4F00C919BA
:1024600008182038807F3018834220D2E07B26462F
:10247000410040186E3680192038417FE12000016C
:102480004143E07B4300C01880192038807F3C2303
:1024900058430918E12360461B0158433C235A4323
:1024A0008018081AE17B491EFDF738FE6864012098
:1024B00028662AE070003218194800926E3014180D
:1024C00020462038417FE123C27F1B015943511828
:1024D000807F3C2250436A6C80180F18194638469A
:1024E000AF64FDF705FE0E4B009A6E339854084614
:1024F0003C2100E010E0FDF7FBFD60703C21384618
:10250000FDF7F6FDA170761C2E660548C07B2E6E89
:10251000401EB042CEDCF8BDEE77FDF785FFF8BD7A
:1025200088020020000000201CB5174815490160F2
:102530000322920742600021016404231822C3632E
:10254000826001220261C16041620262C162016374
:1025500041638161FF228163C23243618262C16152
:10256000FEF706F8002800D0FEE7084800900014A7
:10257000019069460448FDF7ADFF002800D0FEE752
:102580001CBD000000240140840000201000001049
:10259000F0B51D4887B0C26A04210A43C262C26A0C
:1025A0000A400592C16A01263143C162C16A3140C5
:1025B0000591C16A02252943C162C06A03272840E8
:1025C00005907F030520002239460007FEF7EBFA4D
:1025D0000820002400900520019469460294000719
:1025E000FEF738FA00956946084802950194FEF70F
:1025F00031FA05200294694600070097019603947A
:10260000FEF728FA07B0F0BD0010024000040050A9
:10261000F0B5214C87B01F48206000212046FFF70D
:1026200021F81E4FB84232D01D48012646720025BF
:102630007F206560A06025616561A561FF20E5617F
:10264000E0602046FFF744F9002800D0FEE7684626
:102650000570457085700395002269460E48049503
:10266000FFF700FA002800D0FEE7684606754675B9
:102670008675C575002205A90748FFF78BF9002864
:1026800000D0FEE73A4600210348FEF7F1FF07B00D
:10269000F0BD000000280040E4000020F2320000FD
:1026A0000000002010B50E480C490160FF210531E3
:1026B000416000218160C1600161012252024161DB
:1026C0008261C16180224162026281620721C1622E
:1026D000FFF75AFA002800D0FEE710BD0030014095
:1026E00008010020F8B505461348416B202211432C
:1026F00041631348114C0022124F8260124E90C069
:10270000715D001D06C01438FFF792FB002800D051
:10271000FEE7A762705DE062E06801210843E060C7
:1027200020680821084320600021162000F06AF884
:10273000162000F05DF8F8BD0010024000140140C2
:10274000180200201F0300004C5E000810B5012194
:10275000124886B0890701600024114984604160F5
:102760007D21C9000461C160FFF762FB002800D031
:10277000FEE701200003009069460848FFF79EFB32
:10278000002800D0FEE7049404A904480594FFF74C
:102790002BFB002800D0FEE706B010BD6001002032
:1027A0003F1F000010B50D480B490160E1214902AF
:1027B000416000218160C16001618161C1610C22C1
:1027C000016242610B4641620A46FEF703FF0028A0
:1027D00000D0FEE710BD000000440040980100203A
:1027E000002800D10846401EC0B270477047000064
:1027F000C106C90E012088400149086070470000E9
:1028000000E100E08307FF22DB0E9A408907090EF2
:10281000994000280BDA0007000F083883080848A1
:102820009B001818C36993430B43C3617047830827
:1028300004489B001818036893430B4303607047D8
:1028400000ED00E000E400E08307FF22DB0E9A4089
:102850008907090E994000280BDA0007000F083895
:10286000830808489B001818C36993430B43C3614E
:102870007047830804489B001818036893430B4370
:102880000360704700ED00E000E400E07047401C8A
:10289000C0B2884200D300207047000070B5174BCB
:1028A0000021DA681206120F18D19A6B154CD50068
:1028B000134A02D51268224009E09E6B01252D07BC
:1028C0002E439E6312689E6B2240AE439E63A242DB
:1028D00004D103229203904200D101210A480268E8
:1028E000520852000A4302600068C007C00F8842C5
:1028F00001D0012070BD002070BD0000001002401A
:1029000000700040001800000020024001090A2267
:1029100000075143000F4018C0B27047002102E089
:102920000A38C0B2491C0A28FAD20907090E08431E
:10293000704770B505460068C168490613D4002188
:10294000C943C160FEF736F97D260446F60006E06D
:10295000FEF730F9001BB04201D9032070BD286892
:10296000C0684006F4D5002070BD000010B50248D4
:10297000FEF742FF10BD0000E4000020FFB581B06B
:102980001D4616460446FEF715F9314626464036E2
:102990000746002918D03BE0681C15D0002D04D054
:1029A000FEF708F9C01BA8420ED920684268E02152
:1029B0008A4342601CE0206802688A430260206803
:1029C00002680A4302601CE020688168029888431C
:1029D000E2D122E0681C1BD0002D04D0FEF7EAF8FB
:1029E000C01BA84214D920684168E022914341608D
:1029F0002068026840218A430260A06AC9018842B7
:102A0000D9D00120707400203074032005B0F0BDCF
:102A10002068816802988843DCD00020F6E7000037
:102A200031B53223012269460948FFF70BF901222B
:102A3000052554032D0721462846FEF7B4F80A2041
:102A400000F0C6FC002221462846FEF7ACF838BD4F
:102A500008010020704710B5FEF7ECF8FFF7C0F949
:102A600010BD000010B5284998B008680324E4029E
:102A7000A043CA1480180860FEF742F92349086988
:102A8000A043086106200090881502900920039059
:102A9000102004900220099040040B9000010024B3
:102AA0000C900A946846FEF79FFB002800D0FEE7D2
:102AB0000F200D9003200E900F941094002111947C
:102AC0000DA8FEF779FA002800D0FEE72220129028
:102AD000012000041390149412A8FEF7BDF90028F9
:102AE00000D0FEE7FEF71CFB7D21C900FDF700FBCF
:102AF000FFF75EF90420FFF74DF900221146501E42
:102B0000FEF7EAF818B010BD007000404010024017
:102B100010480168821511430160C1680E4A1140D6
:102B2000C16001680D4A114001608168490849008F
:102B3000816001680122920491430160C168FD2215
:102B400012049143C160002101610549C0038860FE
:102B500070470000001002400C40FF88F6FFF6FEB0
:102B600000ED00E030B51A4C87B0A06B210408439B
:102B7000A063FEF7BDF8FEF7B3F8E0680121C903D2
:102B80008843E060E06A01210843E062E06A0840AF
:102B90000590E06A02252843E062E06A6946284021
:102BA00005900C4800900320019000200290052021
:102BB0000007FDF74FFF69460748FDF74BFFE06A46
:102BC00040084000E062E06AA843E06207B030BD20
:102BD00000100240FFFF0000000400500A4908698D
:102BE00040084000086109488279002A06D0002286
:102BF00082710868064A1040086070470349012046
:102C0000203988767047000000080140200000202D
:102C1000FEFF000010B506480168064A1140016039
:102C20000548FFF7C2F905490120887010BD000072
:102C300000140140FEFF00001802002000000020E8
:102C400001208007016949084900016104490A68B7
:102C500004231A430A600168024A11400160704768
:102C600000700040FEFF0000F0B502680124A407D8
:102C70000F4D104EA04203D0A84201D0B04204D163
:102C8000134670274A68BB431A43A04203D0A842A8
:102C900001D0B04204D103231B029A43CB681A43EC
:102CA00002608A68C2620968816201214161F0BDE7
:102CB000000801400014014030B58468FF252D0252
:102CC0001B021343AC430B432343836030BD826834
:102CD00070239A430A4307210A438260704730B544
:102CE000036A046A6408640004628469F025AC43E2
:102CF000120122430A24A3430B438261036230BDC5
:102D000030B5036A1024A34303628369046A0F2564
:102D10002D031203AB431A43A0239C430901214313
:102D20008261016230BD10B5818CC90707D001688E
:102D30004A6801235B049A43836A1A434A60818C80
:102D4000890707D501684A6801231B049A43C36AAF
:102D50001A434A60818C490707D501684A680123F4
:102D60009B049A43036B1A434A60818C090707D579
:102D700001684A680123DB039A43436B1A434A60A4
:102D8000818CC90607D501688A6801231B039A4311
:102D9000836B1A438A60818C890607D501688A682B
:102DA00001235B039A43C36B1A438A60818C4906F3
:102DB00012D501684B6801221205046C934323432A
:102DC0004B60016C914207D101684A6803235B059F
:102DD0009A43436C1A434A60818C090607D50168FF
:102DE0004A680123DB04806C9A4302434A6010BDA9
:102DF000F8B500250446C566FDF7DCFE07462068E9
:102E00000068124E000709D501213B460022490502
:102E10002046009600F0A3F900280DD12068006834
:102E200040070BD501213B4600228905204600962C
:102E300000F095F9002801D00320F8BD202060346F
:102E40006072A07225720020F8BD0000FFFFFF0134
:102E500010B5806A0022014640314A834A82FFF75A
:102E60003CF910BD01680A68FF2321339A430A60C8
:102E700001688A68520852008A602021603081729D
:102E8000704770B50246403201466031938B8D7AAF
:102E90000C460168222D05D08869082210438861FC
:102EA000022070BD496A01268568360389B2B542A1
:102EB00002D10569002D0BD01940436D5D1C45659D
:102EC0001970518B491E0904090C518307D015E074
:102ED000456D19402980416D891C4165F1E7016804
:102EE0000A68FF2321339A430A6001688A685208FE
:102EF00052008A602021A172FFF70EFA002070BDF7
:102F0000FEB504462269A168E3691143626910278E
:102F1000002600681A431143026835466D4B1A407B
:102F20000A43026020684168032212039143E26869
:102F300011434160684A2168A069914201D0226A28
:102F400010438A680B231B029A4302438A60634A38
:102F50002068634990420AD1C8680C2108402BD0F0
:102F600004282DD0082829D00C2810D10EE05A4A68
:102F700090420CD1C8680321890208401CD0111569
:102F8000401A1DD0401A19D0884200D108270220CB
:102F9000FDF7D8FE0190504B514922684039D813B3
:102FA00000929A4235D1002F0CD0022F0DD0042F61
:102FB00012D0082F1CD113E00027E8E70227E6E72C
:102FC0000427E4E7FEF7B2F808E00868C00601D578
:102FD000444805E0444803E0FEF7C8F8002873D0F1
:102FE000626851005118814202D81103814201D216
:102FF000012569E0010E06025008002330185941EE
:10300000FDF7A0F803210902384A411A914259D923
:10301000EEE7E26982422DD13B0000F0A5F90906F6
:10302000080B24192424241F2400019812E0FEF721
:103030008DF80FE008686168C00602D548082C4A80
:1030400001E02C4A48088018FDF752F886B20BE0E0
:10305000FEF78CF8616840004A08F4E761680122D5
:1030600048081204EFE70125310909013007400F34
:10307000084327E03B0000F077F909070A0D061D19
:10308000060606290600B3E7FEF750F814E0FEF73F
:103090005DF811E008686168C00602D54A08114869
:1030A00001E011484A081018FDF722F881B2009893
:1030B000C16009E0FEF75AF861684A088018FDF718
:1030C00017F880B22168C8602846FEBD61684A08CA
:1030D000E9E70000F369FFEF0048004000440040CA
:1030E0004010024000093D000024F400FFFC0F00E6
:1030F00000127A000048E8016921095C212901D009
:1031000002207047014640314A8A002A12D001232A
:1031100082681B039A4202D10269002A15D0C26C50
:10312000531CC364006812788262488A401E488239
:103130000020704701680A6880239A430A6000688B
:103140000168402211430160F2E7C26C03681288F3
:10315000D205D20D9A62C26C921CC264E5E7FFB53B
:1031600081B01E46174605460A9C1CE0601C1AD01A
:10317000002C04D0FDF71EFD801BA04213D9286847
:103180000168FF22A13291430160286881684908E3
:1031900049008160202060356872A8720020287282
:1031A000032005B0F0BD2868C1690298884304D0A7
:1031B0000020B842DAD00020F3E70120F9E7000050
:1031C00010B50F48C169890615D50E490A680E4B1E
:1031D0001A400A6000224A62426A0D480B4B047C86
:1031E0001A55027C132A02D2027C521C027408680F
:1031F0000122104308600748FEF770FF10BD000071
:103200000044004000140140FEFF0000A602002020
:10321000200000209801002010B50E490C4A0A60D9
:103220000D4A80001058486000208860C86008611E
:103230008861C8610C2208624A61486203460246FE
:1032400001460448FEF7C6F9002800D0FEE710BD8D
:103250000044004098010020285E000838B57D2019
:10326000C000FDF75DFBFFF7FDFB02F0F1F8002069
:1032700000F096F8022000F093F81448FEF7FEF9EB
:10328000134C0125207B092802D0A18F002900D1F1
:10329000E573002812D10FA10FA002F055F900200C
:1032A00000901048C17980790023012202F033F8A0
:1032B0000D4840782074207B002806D0C0B2182822
:1032C00003D0252801D0E573257338BDE400002024
:1032D0000000002000000000CACED0CCCBC5CDC875
:1032E000C5000000880200202004002010B5002145
:1032F00000F006F810BD10B5012100F001F810BD76
:1033000073B50C463223012269461648FEF79AFC33
:1033100001F080FF05252D07002C01D0012200E0DF
:10332000002280212846FDF73EFC042000F05CF8D6
:103330000122940321462846FDF735FC142000F0B5
:1033400053F8002221462846FDF72DFC7D20C000C1
:1033500000F04AF8002280212846FDF724FC01F005
:1033600069FF7CBD0801002030B47446641E2578D6
:10337000641CAB4200D21D46635D5B00E31830BCA9
:10338000184702E008C8121F08C1002AFAD1704786
:103390007047002001E001C1121F002AFBD17047D5
:1033A000F8B5B8270546861C0FE028463843C0B25A
:1033B000FFF79CFF0020FFF799FF00240020FFF794
:1033C0009AFF641C3D2CF9DB6D1CB542EDDBF8BDAA
:1033D00008B5002100910A214843009901E0491CE9
:1033E00000918842FBD108BD08B5002100918142BF
:1033F00001D0491CFAE708BDFFB50E461A4681B058
:10340000083235460A993035971D30301C460092F7
:1034100000291AD001291CD0022914D1C0B221469A
:10342000039A01F019FFA11D2E20039A01F014FF49
:10343000761CF0B2039A009901F00EFF3946242061
:10344000039A01F009FF05B0F0BDC0B22146039A0E
:1034500002E021460120039A01F0FEFEA11D2E206C
:10346000039A01F0F9FEE8B2E4E7000070B51E49E6
:103470000020CA7B002A00D104200A7A3C235A4348
:103480004B7AD3188A7A3C246243CC7A121993423D
:1034900001D3012210430A7B4B7BDA4201D1022285
:1034A00010438A7AE1231B015A43CB7A3C246343BD
:1034B0000E4CD218638FD5180B7AE12212015343B8
:1034C0004A7A3C2672439A18AB1A0A7B497B7243AC
:1034D00051188B4201DC10210843616C3C2901D258
:1034E0000821084370BD0000880200200000002071
:1034F00070B56424884229D2184C3C23A4785343E5
:103500001B193C246043834201D98A4201D900241B
:1035100021E08A4204D11248C07B401EC4B21AE0A6
:103520000F4901246E3101E0641CE4B260002018F0
:103530000A5CE1252D016A43401845783C26754315
:103540008078521910189842EED304E00549002003
:10355000C877FCF769FF204670BD000020040020FA
:1035600088020020000000208AB0FDF76BFBFFF707
:1035700079FAFFF7F7FAF748C16A01273943C162C0
:10358000C06A002638400090F34802900320039060
:10359000052002A904960007FDF75CFAFEF7F8FF84
:1035A000FFF700F9FFF7D2F8FFF732F8FFF77AF8E4
:1035B000FEF7BAFFEA48E949016006214160E9499E
:1035C000C1608160FDF7FCFA002800D0FEE7E64DFF
:1035D000A87ADF210840A872A87AFFF721FA032110
:1035E0000520002249030007FDF7DDFADC48FDF75E
:1035F00019FBFF20F530FDF793F901F047FF01F0CB
:1036000075FFDA480068D64C68668034401C0CD1DF
:1036100026726672A672E67226736673E673A673E6
:10362000082060742774FCF7FFFE686ECC4C010E16
:1036300080342172010C6172010AA172E072CB48E0
:10364000001D0068010E2173010C6173000AE07314
:10365000C6480C300068A073C44810300068686623
:103660000007000F6074607CFFF73CF8607CFFF798
:10367000D3FD686E000A2074FEF7B6FEB848FDF769
:10368000D1FAEE77687A00286CD0FCF7CDFE0220E4
:10369000287301F0DDFE0020FFF782FE0220FFF715
:1036A0007FFEB14C0120E0732677A07ADF25284009
:1036B000A072A07AFFF7B4F9FF20F530FDF730F9DA
:1036C000A07A2840A072A07AFFF7AAF9002211463A
:1036D0000220FDF701FB0220FDF7F4FAA448FDF7F4
:1036E000A5F800211C20FFF78DF81C20FFF780F8BB
:1036F0009B4D703D2868026820273A430260984934
:10370000267064230522B2312846FEF706FE94494E
:103710000F22B2312846FEF7AFFD01F099FE204698
:103720004030203407908E48FDF77CFA8E4FF87FAA
:10373000B97F8B4D40188035287000211C20FFF781
:1037400061F81C20FFF754F82846F038006801683B
:10375000202211430160052008210007FDF71EFA11
:1037600038706DE07E488030C17B002936D0017A08
:103770003C225143427A8A18817A3C235943C37AC6
:10378000C9188A422AD2017B427BD14226D0817A53
:10379000E12212015143C27A3C235A4389186A8FAD
:1037A0008B18017AE12212015143427A3C24624390
:1037B00089185A1A017B407B6143081882420DDD4B
:1037C000686C3C280AD36A4801216030FDF74AFF43
:1037D000142803D2654808300068E8772F7358E74B
:1037E0005F48FDF71FFAE079002802D0E67100205B
:1037F00007E05F4801216030FDF734FF80B21E28EA
:1038000006D2401C82B25A4801216030FDF730FFD9
:1038100057487D21002209016030FDF76DFF4D48BA
:10382000816B02041143816301210846FDF770FAA0
:10383000052008210007FDF7B1F9387001207870E4
:1038400038780028CCD04848407800281CD0464F13
:1038500047487E706030FDF711FFFFF7FFFC012045
:103860007874E0713D20B874414801216030FDF763
:10387000F9FE192802D9FE77FCF7D6FD3C48002254
:1038800001216030FDF7F4FE3548FDF7CBF9607B90
:1038900000280ED03748A17B8078884209D0A073D9
:1038A000E07B401CE073E07B132802D92E49012005
:1038B000C876012080070168274A521E1140016026
:1038C0002948807D00282848007B06D000280CD09D
:1038D000182804D0252802D061E0002805D06E7099
:1038E0002148007B182831D001E001206870AE70BB
:1038F00064211F48FCF73AFF1D48FCF735FE80B2F3
:10390000194F0190387B00280BD03946182808D071
:10391000252806D0887ADF2210408872887AFFF73F
:103920007FF8617C0198884201D0012038723A7A90
:103930003846002A33D00127477506758279002A58
:103940001AD0019961748671C6711FE00120A870B8
:10395000CEE7000000100240FFFF000000300040F2
:1039600008020020FF0F000000000020007F000878
:103970008400002020040020019B8A1C934233D243
:10398000891E8B4230DB4179491C417141790A29FA
:1039900005D9467101996174C77106728771FE4835
:1039A000407C002803D001F053FDFB484674A0780A
:1039B00000281BD0F848007B12280DD022280BD0FD
:1039C000A670A979F5480170E979417086700146C1
:1039D0000022F348FEF746F8EF48C07F002802D0E7
:1039E000E07800281CD0D7E04671D7E7EA490022EA
:1039F0006831EB48FDF71CFF0022E849E848FDF775
:103A000039FFE6480178A9714078E871E879E24F1A
:103A1000B97C8842E0D001F01BFDE879B874DBE79F
:103A2000A078002875D1207A642811D3A8793C2188
:103A30004843E9794218A87A3C214843E97A411879
:103A4000287A3C2358436B7AC018FFF751FD79E080
:103A50006079002878D06671D048E122017812019F
:103A6000514342783C235A43807889180818CA4940
:103A7000C864217A4A008A18CA498B5CE122120183
:103A80005343227A5700D219521852783C277A436E
:103A90009B18227A5700D21952189278BE4F9A1862
:103AA000BD4B94461A65BC4A6346528F9646734492
:103AB000BB650093237A227A5F00DB195B18203BF9
:103AC0005B7FE1273F017B435700D7197F18203FD9
:103AD000BA7F3C275743227ADB195700D719791848
:103AE0002039C97F72465B18AB494B659918AA4AC1
:103AF0006045D1650ED31746009A90420AD2101A3B
:103B0000B887012078753E73F8733D203874F874D7
:103B100012E041E0A04A984213D3884211D2237A9E
:103B20005B1E2372009B181A908701205075167334
:103B3000D0733D201074D0740020FFF731FC2BE0CF
:103B400002E06420207227E0944B207A1A7841002A
:103B500040189449085C82421ED15A78207A470066
:103B6000C01940184078824216D19A78207A4300D2
:103B7000C0184018807882420ED1874F01203E73D2
:103B8000F8733D203874F8740020FFF709FC788F33
:103B9000401CB887012078757F48C079002816D06E
:103BA0007D4F387B002813D0182811D0019918397F
:103BB000032901D2082836D00198163802283FD2AE
:103BC000AF208000FFF704FCA07C002835D0A9E2DC
:103BD000019818380328607D1DD2002812D0B87EC5
:103BE0000028F4D06F48A638FEF756F9BE87FE7756
:103BF000FCF71AFC66753E7600223221312001F076
:103C00002BFB8FE201206075674846626548A63845
:103C1000FEF736F986E20028D9D062486675A638E4
:103C2000FEF73AF97EE2AF208000FFF7D1FB787B08
:103C30000028CCD101207873A4E00120A074A1E079
:103C40000198401F02287AD2AF208000FFF7C0FB06
:103C5000E07C002815D0B87E0028B8D0387B123818
:103C60000300FFF781FB19111B252A345251515CC7
:103C70005151515151515116202F514157515167B6
:103C800051000120E0747DE0A8791821FEF7FFFDC6
:103C900090E0E8793C21FEF7FAFD91E0287A1821BE
:103CA000FEF7F5FD92E0687A3C21FEF7F0FD93E027
:103CB000A87A1821FEF7EBFD94E0E87B6421FEF77B
:103CC000E6FD95E0E87A3C21FEF7E1FD96E0A87B71
:103CD0000A21FCF70DFAA87B0F460A21FCF708FA27
:103CE0000A21FEF7D4FD97E0A87B0A21FCF700FA31
:103CF00007460A214F43A87BFCF7FAF908460A2138
:103D0000FEF7C5FD3818A873B5E0287B6421FEF7DF
:103D1000BEFD98E0687B3C21FEF7B9FD99E0287C68
:103D2000F721FEF7B4FD2874287C002843D1012038
:103D30009AE004E0687C0921FEF7A9FD9AE0019869
:103D40000B3802287AD2AF208000FFF741FB207D9C
:103D5000002815D0B87E00281CD0387B123803000C
:103D6000FFF702FB1924303C424E6D89897989891D
:103D700089898989892A3648895D73898984890076
:103D800001202075084846620648A638FEF778F8F4
:103D90006673BE73C6E1000000000020200400200E
:103DA000E4000020F602002000080140A879182154
:103DB000FEF716FDA8715EE0E8793C21FEF710FDE4
:103DC000E87158E0287A1821FEF70AFD287252E0BF
:103DD000687A3C21FEF704FD68724CE0A87A18214D
:103DE000FEF7FEFCA87246E0E87B6421FEF7F8FCD3
:103DF000E87340E0E87A3C21FEF7F2FCE8723AE032
:103E0000A87B0A21FCF774F9A87B0F460A21FCF76E
:103E10006FF90A21FEF7E4FC0A21484372E7A87B08
:103E20000A21FCF765F907460A214F43A87BFCF7F6
:103E30005FF908460A21FEF7D3FC63E71FE0287B01
:103E40006421FEF7CDFC287315E0687B3C21FEF76A
:103E5000C7FC68730FE0287CF721FEF7C1FC2874CB
:103E6000287C002807D1F620287404E0687C09210A
:103E7000FEF7B6FC6874FE48FFF7AAFA52E1E07C50
:103E8000217D084374D0FB48FEF706F83D203874C6
:103E90000120B873B87E002801D0BE76EBE0387BF5
:103EA00012380300FFF760FA190E28424F6AAAE79A
:103EB000E7C4E7E7E7E7E7E7E71B355CE78AB7E74B
:103EC000E7DBE700E07C0028A87903D01821FEF7A3
:103ED000DEFC02E01821FEF783FCA871CBE0E07C59
:103EE0000028E87903D03C21FEF7D1FC02E03C2118
:103EF000FEF776FCE871BEE0E07C0028287A03D06B
:103F00001821FEF7C4FC02E01821FEF769FC2872B4
:103F1000B1E0E07C0028687A03D03C21FEF7B7FCD2
:103F200002E03C21FEF75CFC6872A4E0E07C002823
:103F3000A87A03D01821FEF7AAFC02E01821FEF7A8
:103F40004FFCA87297E0E07C0028E87B03D0642156
:103F5000FEF79DFC02E06421FEF742FCE8738AE074
:103F6000E07C0028E87A04D03C21FEF790FC03E0D6
:103F700086E03C21FEF734FCE8727CE0E07C00281F
:103F8000A87B0BD00A21FCF7B3F8A87B0F460A21C7
:103F9000FCF7AEF80A21FEF77AFC0AE00A21FCF7EA
:103FA000A7F8A87B0F460A21FCF7A2F80A21FEF722
:103FB00017FC0A2148433818A8735CE0E07C00280D
:103FC000A87B0DD00A21FCF793F807460A214F433E
:103FD000A87BFCF78DF808460A21FEF758FCEAE7B3
:103FE0000A21FCF785F807460A214F43A87BFCF716
:103FF0007FF808460A21FEF7F3FBDCE7E07C0028A7
:10400000287B03D06421FEF742FC02E06421FEF726
:10401000E7FB28732FE0E07C0028687B03D03C217D
:10402000FEF735FC02E03C21FEF7DAFB687322E084
:10403000E07C0028287C08D0F721FEF728FC2874B3
:10404000287C002817D1012007E0F721FEF7C8FBE4
:104050002874287C00280ED1F62028740BE0E07C20
:104060000028687C03D00921FEF711FC02E0092139
:10407000FEF7B6FB68740120E070E674267551E027
:10408000A07C00284ED07B48FDF706FFFE75FE722F
:10409000A6740020FFF784F90120F8733D203874DE
:1040A000397B182900D0F874387F002803D14B00E1
:1040B0007149C95C3973E178002908D03946002874
:1040C00005D001206070E670CE77FCF7ADF920785E
:1040D000002814D0387F3946002810D06420207280
:1040E000487F002801D04E770CE0C87F002804D01C
:1040F0000020C877FCF798F904E00120F9E7207860
:10410000002800D02670397F3846002900D0067775
:104110000021019101218173217B002902D02673A6
:10412000022139735548007B2B287DD243007B4404
:104130009B885B009F442A004A01D201140254026A
:1041400094029703FF035604B004D2047800780069
:10415000780078007800F800CD01DC011E025E02D4
:104160009E02F003480463047800E00478007800BD
:1041700078007800780078007800DC011E025E028A
:104180001203F00348047800780082053B4FF87B67
:10419000002810D03AA13BA001F0D6F9FE73B87AFE
:1041A00020210843B872B87AFEF73AFC6673BE73F2
:1041B000207A401C2072364841783048007C814289
:1041C0002CD02E480079002804D02C4F38790128B3
:1041D00004D018E029480121017114E0022038714F
:1041E00001F036F926A127A001F0AEF9FE73B87AE6
:1041F00020210843B8720120FFF7EAF8B87AFEF7E9
:104200000FFC6673BE730096E979A879002301223A
:1042100001F081F81E484178184801741C48174F76
:104220008178F87C814200E07DE034D0B87A2021AA
:104230000843B8720120FFF7CBF8B87AFEF7F0FB1D
:10424000B88F0023401E80B21F22012101F0C2F866
:10425000B88F401EB8873C21B88FFBF749FFE87044
:104260003C21B88FFBF744FF29710948817811E0A0
:10427000D020000050020020D0550008000000208F
:1042800000000000CACED0CCCBC5CDC8C500000010
:1042900020040020F974B98F002944D1FE4801217F
:1042A000C176817ADF2211408172807AFEF7B8FBF5
:1042B000207A642837D2E87B217A401E884232DA9D
:1042C0002672A87B00282ED0287B3C214843697B9E
:1042D000AA7B40187D21C90052185043FBF708FF04
:1042E000079980B20880ED49884201D9079801807A
:1042F00007983C210088FBF7FBFEC0B2A075009038
:104300006172EA7B0F463C23584340181146FBF785
:10431000EFFEE149496C8842CCD2012060702071E7
:10432000009828736F73F6E2DB48C17B0029FAD04E
:10433000817ADF2211408172807AFEF771FB0A21B7
:10434000E07DFBF7D5FE3030C0B201220B2100F03A
:1043500083FF0A21E07DFBF7CBFE084630300122C7
:10436000112100F079FF012216213A2000F074FF9C
:104370000A21207EFBF7BCFE3030C0B201221A2198
:1043800000F06AFF0A21207EFBF7B2FE08463030BB
:104390000122202100F060FF012225213A2000F0B7
:1043A0005BFF0A21A07AFBF7A3FE3030C0B20122E6
:1043B000292100F051FF0A21A07AFBF799FE084657
:1043C0002F3001222F2100F047FFACE7B24FF87BDE
:1043D00000280ED0FFF74AF868716879002837D0B6
:1043E000AFA1B2A001F0B0F80A21B9770121797725
:1043F000FE73F87F00285BD0FCF7DCFBF8663A6FB1
:104400003946831A7D22D200934202D901220A76CC
:104410000867087E00284BD00E76487E00283ED0E4
:104420004E760096E979A8792323012200F073FFE4
:1044300001222E21002000F00FFFE8790A21FBF76E
:1044400057FE3030C0B20122322100F005FF2FE0CC
:104450007E77BE77F87F00281CD097A197A001F047
:1044600073F801222E21002000F0F6FEE8790A21DF
:10447000FBF73EFE3030C0B20122322100F0ECFEEC
:10448000387B00090090E979A8792323012200F004
:1044900042FFADE78CA189A001F056F8A8E7012002
:1044A00048760096E979A8792323012200F033FFAA
:1044B000397F3846002988D0C07F002801D082A1EA
:1044C00005E000223821012000F0C6FE80A17BA07B
:1044D0000FE301202070704908731CE26E4FF87BD7
:1044E0000028FAD07DA17FA001F02EF8FE732DE008
:1044F000694FF87B002804D078A17AA001F024F855
:10450000FE730120A070A07C217D0843E17C08435C
:1045100009D0B87E002806D00096E979A87923232F
:10452000012200F0F8FEFCF745FBF8663A6F3946C9
:10453000821AFA2A02D901220A760867087E002820
:10454000CBD00E76487E002806D04E76387B000908
:104550000090E979A87932E2012048760096F8E7E0
:104560004D4FF87B0028B8D061A15EA000F0ECFFB1
:10457000FE732BE0484FF87B002804D05CA159A0C3
:1045800000F0E2FFFE73A07C217D0843E17C08433C
:1045900009D0B87E002806D00096697A287A2323AD
:1045A000012200F0B8FEFCF705FBF8663A6F3946C9
:1045B000821AFA2A02D901220A760867087E0028A0
:1045C0008BD00E76487E002806D04E76387B0009C8
:1045D0000090697A287AF2E1012048760096F8E79F
:1045E0002D4FF87B0028ABD043A13EA000F0ACFFDC
:1045F000FE732BE0284FF87B002804D03EA139A0A1
:1046000000F0A2FFFE73A07C217D0843E17C0843FB
:1046100009D0B87E002806D00096E97AA87A23232C
:10462000012200F078FEFCF7C5FAF8663A6F3946C9
:10463000821AFA2A02D901220A760867087E00281F
:1046400091D00E76487E002806D04E76387B000941
:104650000090E97AA87AB2E1012048760096F8E75E
:104660000D4FF87B0028ABD025A127A000F06CFFF0
:10467000FE7368E0084FF87B002804D020A122A038
:1046800000F062FFFE73A07C217D0843E17C0843BB
:1046900047D0B87E00283DE0000000206F170000E2
:1046A000CFC0D0C0CCC5D2D0DB000000D3D1D2C0A7
:1046B000CDCEC2C8D2C50000C2CACB00CFD0CEC3B7
:1046C000D0C0CCCCC0000000C2DBCACB00000000D0
:1046D000CEC1D0C0C1CED2CAC0000000C2D0C5CCAD
:1046E000DF000000D3D1D2C0CDCEC2CAC0000000CE
:1046F000D1D2C0D0D2000000D1D2CECF0000000075
:10470000C2D1C5C3CE000000CACED0CCCBC5CDC867
:10471000C900000005D0E87B00232A22012100F017
:10472000B5FDFCF747FAF866396F411AFA2902D944
:10473000012139763867387E002894D03E76787E1D
:10474000002804D07E76387B0309E87B03E0012053
:104750007876E87B00232A2201216CE2F64FF87B71
:10476000002815D0F5A1F6A000F0EEFEB87A2021C1
:104770000843B872B87AFEF753F9BE73FE73E67554
:104780002676A6723D20F874FE77FBF74DFE3E7745
:10479000BE73EE48F97C807888426FD00A21E07DB4
:1047A000FBF7A6FC3030C0B201220B2100F054FD13
:1047B0000A21E07DFBF79CFC0846303001221121E4
:1047C00000F04AFD012216213A2000F045FD0A21A1
:1047D000207EFBF78DFC3030C0B201221A2100F0A0
:1047E0003BFD0A21207EFBF783FC08463030012286
:1047F000202100F031FD012225213A2000F02CFD7E
:104800000A21A07AFBF774FC3030C0B201222921C2
:1048100000F022FD0A21A07AFBF76AFC084630303E
:1048200001222F2100F018FDA07AE0723C21FEF752
:104830002EF8A072E07A3B280DD1207E60763C21D4
:10484000FEF725F82076607E3B2804D11821E07D14
:10485000FEF71DF8E075BD488078F874B87A20211D
:104860000843B87214E1B44FF87B002853D0B8A1C4
:10487000B9A000F069FE3846C6732AE059E2A07C70
:10488000217D0843E17C084312D0AB48807E00289C
:104890000ED0A87B0A21FBF72BFC0891A87B0A21EC
:1048A000FBF726FC2A23012200960899FEF7A4FDB7
:1048B000FCF780F9A049C8660A6F821AFA2A36D82E
:1048C000087E0028D2D00E76487E002812D09A4862
:1048D0004676A87B0A21FBF70BFC0891A87B0A21EE
:1048E000FBF706FC94492A23097B09090091012260
:1048F00008990EE001204876A87B0A21FBF7F8FB17
:10490000A87B0F460A21FBF7F3FB2A230122394635
:104910000096FEF771FD01E28748C07B0028AED00B
:104920008BA18DA000F010FE8348C673A7E701227B
:104930000A760867C4E78048C17B0029EBD00746A8
:10494000807ADF210840B872B87AFEF769F88549A5
:1049500085A000F0F9FD387B00090090697B287B79
:104960002323012200F0D7FCFE73D7E1A07C217D38
:104970000843E17C084309D0B87E002806D00096A1
:10498000697B287B2323012200F0C5FCFCF712F988
:10499000F8663A6F3946821AFA2A1FD8087E00282C
:1049A000B9D00E76487E002804D04E76387B0009B8
:1049B000009002E0012048760096697B287B232343
:1049C000012200F0A8FCA9E15B4FF87B0028CDD0C4
:1049D000644965A000F0B8FDFE73C7E701220A76BE
:1049E0000867DBE7544FF87B002804D053A161A08F
:1049F00000F0AAFDFE73788F401CB8878EE14E4F01
:104A0000F87B002802D1387E002811D05CA159A083
:104A100000F09AFDFE733E76B87A20210843B87202
:104A2000B87AFDF7FDFF6673BE73FE77FBF7FCFCFB
:104A30004648F97C807888421ED0B87A2021084305
:104A4000B872B87AFDF7ECFFB88F0023401E80B231
:104A50001F22012100F0BEFCB88F401EB8873C2108
:104A6000B88FFBF745FBE8703C21B88FFBF740FBA4
:104A7000297136488078F874B88F002802D0B87E43
:104A8000002808D00120F876B97ADF200140B972F9
:104A9000B87AFDF7C5FF41E1274FF87B00281BD00E
:104AA000FE730020FEF77CFC36A139A000F04CFD1F
:104AB0002E210022084600F0CFFB00222A214D20A3
:104AC00000F0CAFB00223221522000F0C5FB002278
:104AD0003821552000F0C0FBFE761FE11648C17B4F
:104AE000002908D0C6730020FEF75AFC1D482AA1F1
:104AF0003C3800F029FD11E10F4FF87B00287CD0F5
:104B0000FE730020FEF74CFC25A1002000F050FBB6
:104B1000687C0300FEF728FC0906080A0C0E67698A
:104B20006B6D870020A165E022A163E024A161E014
:104B300026A15FE028A15DE0000000200000000049
:104B4000CDC5CFD0C5D0DBC2CDCE00002004002023
:104B5000D0CED1D220CDC000D1D3D2CED7CDDBC9DB
:104B600000000000DC460008CACED0CC20CEC1D95F
:104B7000C5C50000C2CACB20D2C5D1D200000000FA
:104B8000CC3AD100464545442076312E334C0000C6
:104B90004156544F4B4F52004D4F44425553000025
:104BA000E0E4F0E5F1000000F1EAF02020203234EA
:104BB00030300000F1EAF02020203438303000009E
:104BC000F1EAF0202020393630300000F1EAF02000
:104BD0002031343430300000F1EAF0202031393215
:104BE0003030000009E0F3A104E0F5A102E0F7A1F4
:104BF00000E0F9A1012000F0DBFAFBF7DBFFF8662B
:104C0000396F411AFA2902D9012139763867387E7D
:104C1000002812D03E76787E002806D07E76387B3B
:104C20000309287C05E0EFA1E4E701207876287CE1
:104C300000232422002100F029FB6FE0EC4FF87BD9
:104C4000002832D00120F870FE730020FEF7A8FB88
:104C5000E849002000F0ACFA287C00232422194601
:104C600000F014FB687C0300FEF77EFB0906090CCC
:104C70000F121517191B1F00DE49083112E0DD491C
:104C800014310FE0DB4920310CE0DA492C3109E026
:104C9000D849383106E0C7A104E0C9A102E0CBA1A0
:104CA00000E0CDA1012000F083FAFBF783FFF86656
:104CB000396F411AFA2902D9012139763867387ECD
:104CC00000282BD03E76787E002802D07E76CAA1BE
:104CD00021E001207876687C0300FEF745FB090699
:104CE000090C0F121517191B1F00C249083112E0D9
:104CF000C04914310FE0BF4920310CE0BD492C31CF
:104D000009E0BC49383106E0AAA104E0ACA102E008
:104D1000AEA100E0B0A1012000F04AFAB448817BC6
:104D2000002906D0B7498978A17301216173E67320
:104D30008673AF4FB87E002825D0A07C002822D0F3
:104D400001223A77387B4100AF480818B97E405CB1
:104D50003873092815D939463A76182812D02528EB
:104D600010D011280ED001204876FBF723FF3867BA
:104D7000397B38461A2901D02A2903D10121C17370
:104D800000E03E76BE76B87E002809D0787B002809
:104D900006D00120387725213973BE76F8737E73EB
:104DA000387D002801D03E757E759148C07E002870
:104DB00021D08F4FB87ADF210840B872B87AFDF75A
:104DC0002FFEF87D002801D0092003E00020FEF727
:104DD000E7FA012038730120F8736673E673FE76F4
:104DE000BE763D213974F974E178002901D0E6706E
:104DF000607066733875607800280BD06670207913
:104E000000281CD02671FBF70FFBFDF7EDFA784860
:104E10000121C1737648807800287DD0744886705F
:104E20007A4F297C3878884208D1217C3846FBF7B4
:104E300037FA00046E49000CC88703D0A0E1642053
:104E40002072E0E7787803280AD006286ED06F49F0
:104E50003A7814310A7080304870012088706BE114
:104E6000B8783B46070003D01A46012F26D057E0FA
:104E7000D978587900901A7908181202521E8018B1
:104E800014284DDA614A18781432107003205070DB
:104E9000009849194000907000208C463F0209E0BC
:104EA00061463A188A5C59494300143159180A710D
:104EB000CE70401C009A8242F2DC29E050791179D0
:104EC000D778844609023818491E4018032827DA83
:104ED0004E4918781431087003204870604640002D
:104EE00088702A78424874300270AA784270AA7892
:104EF000827000200AE03E4974310A18BA5C4349C6
:104F00004300143159180A71CE70401C8445F2DCFC
:104F10003E481430807800E033E1C01CC7B21EE187
:104F20003A48197814300170832102E137488078BB
:104F3000002805D0354A012877D002286CD0F2E04D
:104F4000324FF878052868D9142866D239790029B3
:104F500064D12F4A7979125C91425FD22954112889
:104F600004D0062806D0072804D00EE020490120EE
:104F7000C8700AE0A97923480170E9794170867008
:104F8000014600222348FCF76DFD1949CE77012028
:104F90006070C8731D483978143001700621417063
:104FA000B9788170F978C170397901717979417175
:104FB00068E03AE0F1EAF020203338343030000085
:104FC000F1EAF0202035363030300000F1EAF020F0
:104FD0002035373630300000F1EAF02031313532FB
:104FE00030300000F1EAF06F3131353230300000FE
:104FF00000000020A04B0008F1EAF0202020202033
:105000002020000020040020D0550008A602002027
:10501000555E0008E40000207AE084E061483978B9
:10502000017016214170032185E0D178002904D058
:10503000012929D0022947D075E01079002872D1C2
:105040005079174602286ED2FEF710FA6871687917
:10505000002805D05449CE7701206070C873DDE781
:10506000514A7879D07701216170D1734D493A78EE
:105070000A7006224A70BA788A70FA78CA703A7949
:105080000A71487106276AE01779002F4BD15379CE
:105090009C46022B47D21378424A13700623537062
:1050A0009070D1701771604650713F4801211F46C2
:1050B000C1736146002903D0418F491C818700E0FC
:1050C0008687182101734AE013799C46002B2AD168
:1050D000344A143A5379022B25D2324F12783A705F
:1050E00006227A70B870F970604638717B71174685
:1050F000002B07D0A87C3C214843E97C41182A4872
:10510000818701E02848868727480121C173D8E7B5
:10511000D1788C46002906D11379002B03D151791F
:10512000009100290AD01F4814380178143001700A
:105130001621417002218170032710E0194F127867
:105140003A7006217970B8706046F8703B7100982B
:10515000787115490120887648730627C873394647
:105160001048FBF79DF810496423C8870D49BA1C05
:10517000C855000AC91948700A490C48FDF7CDF80E
:1051800026740948C178002901D1FEF7CCFA017BC9
:105190002A29FAD0C670687CFEF73EF8687CFDF7D5
:1051A000A1FAF2E7BA0200200000002098010020D6
:1051B000F3B581B004460298FAF7F4FFC5B2B820FF
:1051C0002043FEF793F80020FEF790F80027104EDA
:1051D0000EE0002402980621C05D48438019005D5E
:1051E000FEF789F8641CE4B2062CF3D37F1CFFB2EF
:1051F000AF42EED309E00024305DFEF77CF8641C7A
:10520000E4B2062CF8D36D1CEDB20A2DF3D3FEBD2B
:105210002656000800B585B080200090012001903E
:10522000002003900290052069460007FBF712FC5E
:1052300005B000BD00B585B080200090022001902F
:105240000021032003900291049105206946000784
:10525000FBF700FC05B000BD70B50546B820024361
:105260000C46D0B2FEF742F8E0B2FEF73FF8062057
:105270004543054800242D18285DFEF73CF8641CC2
:10528000E4B2062CF8D370BD2656000870B514465B
:105290000E460546002B13D0012B10D1632804D9EC
:1052A0000A46A11F0120FFF7D7FF32462146012001
:1052B000FFF7D2FF3246A11D0120FFF7CDFF70BDE1
:1052C000632D07D96421FAF713FF3030C0B232469C
:1052D000A11F02E00A46A11F0120FFF7BDFF092D13
:1052E0000BD964212846FAF703FF08460A21FAF78A
:1052F000FFFE32462146303002E032462146012090
:10530000FFF7AAFF0A212846FAF7F2FE08463030D6
:105310003246A11DD1E7FFB51F4681B00B373E1DB8
:105320000A99B51D1C46002925D0012933D0022930
:105330001FD10A21FAF7DCFE30300091C0B22146BD
:10534000039AFFF789FF0099039A08463030A11DA0
:10535000FFF782FF39463A20039AFFF77DFF314677
:105360000120039AFFF778FF29460120039AFFF7EF
:1053700073FF05B0F0BD0A21FAF7BAFE3030009194
:10538000C0B22146039AFFF767FF0099039A0846C7
:105390003030A11D07E019460120039AFFF75CFF9A
:1053A000A11D0120039AFFF757FF39463A20039ABF
:1053B000FFF752FF0A210298FAF79AFE0C463030A6
:1053C000C0B23146039AFFF747FF204630302946E6
:1053D000039ACCE7F8B50D46144607463C21FAF788
:1053E00087FEC6B2009138463C21FAF781FEC0B272
:1053F0000A21FAF77DFE0F46092E04D93030C0B2DB
:105400002A46214602E02A4621460120FFF724FFD2
:10541000384630302A46A11DFFF71EFF21462A4696
:105420000B313A20FFF718FF0A210098FAF760FEC7
:105430000E4630302146C0B22A460F31FFF70CFF2E
:105440003046214630302A461531FFF705FFF8BDBA
:1054500010B56420FDF7C8FF0220FBF761FAE220D7
:10546000FDF744FFEE20FDF741FFA420FDF73EFFCE
:10547000A820FDF73BFFC020FDF738FFA020FDF777
:1054800035FFAF20FDF732FF10BD000070B51248A8
:10549000416B04221143416311480021124D816088
:1054A0000E4CC5600F4E016150C00838FCF7C0FCBF
:1054B000002800D0FEE7A662E562E068012108430B
:1054C000E0602068082210432060206808432060C4
:1054D0001420FDF78DF970BD001002400008014056
:1054E000500200203F1F0000DC05000070B513498A
:1054F000886B0125284388638C0411480021C82249
:105500008160C2600F4E016150C00838FCF790FC0A
:10551000002800D0FEE7A6627D20C000E062E068BF
:105520002843E06020680821084320602068284361
:1055300020600F20FDF75CF970BD000000100240F4
:10554000600100203F1F0000F3B581B00646FAF766
:1055500029FEC7B20298FAF725FEC5B2002408E07A
:10556000214606204143305D0022FFF775FE641C92
:10557000E4B2BC42F4D3154E09E00024305DFDF7DF
:10558000BAFE641CE4B2062CF8D37F1CFFB20A2FCB
:10559000F3D3002409E0214606204143029801226A
:1055A000005DFFF759FE641CE4B2AC42F3D309E09E
:1055B0000024305DFDF79FFE641CE4B2062CF8D396
:1055C0006D1CEDB20A2DF3D3FEBD00002656000877
:1055D000000002110712041305140615081603171C
:1055E00001180101011A070707070707070707073F
:1055F00010010701220223032404150526062707AC
:10560000181807072A0A07070707070707070707E2
:1056100007070707120213031404101016061707D2
:10562000070707071A0A000000000000000000003A
:10563000000000000000000000000000000000006A
:10564000000000000000000000000000000000005A
:10565000000000000000000000000000000000004A
:10566000000000000000000000000000000000003A
:10567000000000000000000000000000000000002A
:10568000000000000000000000000000000000001A
:10569000000000000000000000000000000000000A
:1056A00000000000000000000000000000000000FA
:1056B00000000000000000000000000000000000EA
:1056C00000000000000000000000000000000000DA
:1056D00000000000000000000000000000000000CA
:1056E00000000000000000000000000000070007AC
:1056F0000000147F147F1400246A2A2B1200231345
:10570000086462003649552250000005030000007D
:10571000001C224100000041221C000014083E0829
:10572000140008083E080800005030000000006027
:105730006020000000606000000000606000000069
:105740000000000000003E5149453E0004427F40F9
:1057500000004261514946002141454B3100181477
:10576000127F10002745454539003C4A4949300021
:10577000017109050300364949493600064949497E
:105780003E000036360000000056360000000814C7
:1057900022410000141414141400412214080000C3
:1057A000020151090600324979413E007E11111172
:1057B0007E007F49494936003E41414122007F41F8
:1057C00041221C007F49494949007F09090901001C
:1057D0003E41494972007F0808087F0000417F412F
:1057E00000002040413F01007F08142241007F401B
:1057F000404040007F020C027F007F0408107F00C1
:105800003E4141413E007F09090906003E415121C8
:105810005E007F09192946004649494931000101C6
:105820007F0101003F4040403F001F2040201F00FB
:105830003F4038403F0063140814630007087008B5
:105840000700615149454300007F414100000204C7
:10585000081020000041417F000004020102040002
:1058600040404040402800010204000020545454AD
:1058700078007F4844443800384444442000384489
:1058800044487F00385454541800087F0101020036
:105890000C5252523E007F080404780000447D40C0
:1058A00000002020443D00007F102844000000003C
:1058B0007F4020007C04180478007C0804047800F1
:1058C0003844444438007C14141408000814141894
:1058D0007C007C0804040800485454542000043F11
:1058E000444020003C4040207C001C2040201C0004
:1058F0003C4030403C004428102844000C5050509C
:105900003C004464544C44001F001F111F001F0042
:105910001D1517001F0017151D00380408100E0074
:105920002A2A7F2A2A007C1211127C007F494949C9
:1059300031007F49494936007F0101010300603E83
:10594000213F60007F494949410077087F0877007F
:105950002249494936007F2010087F007C20120927
:105960007C007F0814224100403E01017F007F023D
:105970000C027F007F0808087F003E4141413E0045
:105980007F0101017F007C55545544003855545522
:10599000180020100804020002040810200030182B
:1059A0000C060300060C1830600008492A1C080089
:1059B000081C2A49080010207F20100004027F02E2
:1059C000040008086B080800222227222200781011
:1059D000207B03005D3614365D00000705070000DC
:1059E000304848030300080F080F08081414F41483
:1059F000141408F808F80808000F080F0808000039
:105A00001F1414140000FC14141400F808F80808FB
:105A100008FF08FF08087C55544500001414FF14C3
:105A2000141408080F0000000000F8080808E7E751
:105A3000E7E7E7E7E1E1E1E1E1E1FFFFFF00000087
:105A4000000000FFFFFF4900490049006B146B1480
:105A50006B007F497F497F000000FF0000000808BD
:105A6000FF0000001414FF00000008FF00FF00000A
:105A700008F808F8000038555455580014F700FF8E
:105A8000000000FF00FF000014F404FC00001417E5
:105A9000101F0000101F101F000014141F00000032
:105AA0000808F80000007C1211127C007F49494967
:105AB00031007F49494936007F0101010300603E02
:105AC000213F60007F494949410077087F087700FE
:105AD0002249494936007F2010087F007C201209A6
